S00F000030312E20424C4B2E737265638D
S11300000C9434000C943E000C943E000C943E007E
S11300100C943E000C943E000C943E000C943E0064
S11300200C943E000C943E000C943E000C943E0054
S11300300C943E000C943E000C943E000C943E0044
S11300400C943E000C943E000C943E000C943E0034
S11300500C943E000C943E000C943E000C943E0024
S11300600C943E000C943E0011241FBECFEFD8E048
S1130070DEBFCDBF0E9440000C944F000C940000E2
S1130080229A94E085B1892785B92FE73AE186E081
S1130090215030408040E1F700C00000F3CFF894D5
S10500A0FFCF8C
S9030000FC
