S016000030322E20424C4B2D425554544F4E2E737265637C
S11300000C9434000C943E000C943E000C943E007E
S11300100C943E000C943E000C943E000C943E0064
S11300200C943E000C943E000C943E000C943E0054
S11300300C943E000C943E000C943E000C943E0044
S11300400C943E000C943E000C943E000C943E0034
S11300500C943E000C943E000C943E000C943E0024
S11300600C943E000C943E0011241FBECFEFD8E048
S1130070DEBFCDBF0E9440000C9448000C940000E9
S1130080259A27981F9902C02D9AFCCF2D98FACF54
S1070090F894FFCF0E
S9030000FC
