S018000030342E20424C4B532D52414E444F4D532E73726563ED
S11300000C943B000C944D000C944D000C944D004A
S11300100C946C000C944D000C944D000C944D0009
S11300200C944D000C944D000C944D000C944D0018
S11300300C944D000C944D000C944D000C944D0008
S11300400C944D000C944D000C944D000C944D00F8
S11300500C944D000C944D000C944D000C944D00E8
S11300600C944D000C944D0057005A005D00600044
S113007063006600690011241FBECFEFD8E0DEBF25
S1130080CDBF21E0A0E0B1E001C01D92A230B207D3
S1130090E1F70E9496000C94BB000C94000087309A
S11300A09105C8F4FC01EC5CFF4F0C94B50082E0B0
S11300B085B9089586E085B908958EE085B90895D7
S11300C08EE185B908958EE385B908958EE785B9E3
S11300D008958EEF85B908951F920F920FB60F926F
S11300E011242F933F934F935F936F937F938F9339
S11300F09F93AF93BF93EF93FF93309906C0809182
S11301000001909101010E944F00FF91EF91BF9176
S1130110AF919F918F917F916F915F914F913F919B
S11301202F910F900FBE0F901F9018958FEF84B9E9
S11301303898ECE6F0E0808181608083E8E6F0E0C6
S11301408081826080837894409A809100019091AC
S11301500101019690930101809300010697A1F794
S11301601092010110920001EFCFEE0FFF1F0590D6
S10D0170F491E02D0994F894FFCFF8
S9030000FC
