:100000000C943E000C9450000C9450000C94500042
:100010000C9450000C9450000C9450000C94500020
:100020000C9450000C9450000C9450000C94500010
:100030000C9450000C9450000C9450000C94500000
:100040000C94E1000C9450000C9450000C9450005F
:100050000C9450000C9450000C9450000C945000E0
:100060000C9450000C9450005A005D006000630036
:10007000660069006C006F007200750011241FBEDD
:10008000CFEFD8E0DEBFCDBF21E0A0E0B1E001C0FE
:100090001D92A630B207E1F70E9488000C94FE0082
:1000A0000C9400008A30910518F5FC01EC5CFF4FC0
:1000B0000C94F8008BE78BB908958AE08BB908950A
:1000C00083EB8BB908958BE98BB908958AEC8BB9D2
:1000D000089589ED8BB9089589EF8BB908958BE068
:1000E0008BB908958BEF8BB908958BED8BB908957B
:1000F0005F9A08958FEF8AB91BB883E084B915B869
:1001000014BC85E085BD81E080936E0078940895ED
:100110000E947A0081E090E09093050180930401B1
:1001200080910401909105010197D1F7109205018A
:100130001092040180910001909101010E945200EF
:10014000289A299880E395E70197F1F780910201B9
:10015000909103010E9452002898299A80E395E724
:100160000197F1F72091000130910101293031050B
:1001700081F4809102019091030189309105D9F4B5
:1001800010920301109202011092010110920001DD
:10019000C7CF80910201909103018930910559F4F4
:1001A00010920301109202012F5F3F4F3093010123
:1001B00020930001B5CF0196909303018093020133
:1001C000AFCF1F920F920FB60F9211248F939F9370
:1001D000809104019091050101969093050180930F
:1001E00004019F918F910F900FBE0F901F90189553
:1001F000EE0FFF1F0590F491E02D0994F894FFCFC6
:00000001FF
