:100000000C9434000C9453000C947C000C94A500C8
:100010000C9451000C94B9000C9451000C945100B4
:100020000C9451000C9451000C9451000C9451000C
:100030000C9451000C9451000C9451000C945100FC
:100040000C9451000C9451000C9451000C945100EC
:100050000C9451000C9451000C9451000C945100DC
:100060000C9451000C94510011241FBECFEFD8E026
:10007000DEBFCDBF11E0A0E0B1E0E0EFF1E002C0F3
:1000800005900D92AA30B107D9F721E0AAE0B1E0BE
:1000900001C01D92AB30B207E1F70E94EE000C9454
:1000A000F6000C9400001F920F920FB60F921124CD
:1000B0008F939F93EF93FF93E0910A01EF5FE0939B
:1000C0000A018DECE89F812D1124869586958695F1
:1000D000880F982F990F990F890FE81BF0E0E050D7
:1000E000FF4F808188B9FF91EF919F918F910F9081
:1000F0000FBE0F901F9018951F920F920FB60F9280
:1001000011248F939F93EF93FF93E0910A01E150A5
:10011000E0930A018DECE89F812D11248695869548
:100120008695880F982F990F990F890FE81BF0E09B
:10013000E050FF4F808188B9FF91EF919F918F919F
:100140000F900FBE0F901F9018951F920F920FB631
:100150000F9211248F939F93189B04C095B184E054
:10016000892785B99F918F910F900FBE0F901F9097
:1001700018951F920F920FB60F9211248F939F9391
:10018000489B04C095B188E0892785B99F918F91DC
:100190000F900FBE0F901F9018958EEF84B981E0DD
:1001A00085B99FEF97B99FE398B990EF9AB99FE00F
:1001B0009BB99AE09093690093E09DBBE8E6F0E07C
:1001C00090819160908390819460908380936D0082
:1001D00010926C0080936B00789408950E94CD007B
:1001E000499B02C0299AFCCF2998FACFF894FFCFF7
:0A01F0003F065B4F666D7D077F6FD1
:00000001FF
