S023000030332E20424C4B2D425554544F4E2D494E54455252555054494F4E2E737265638E
S11300000C9434000C943E000C943E000C9440007C
S11300100C943E000C943E000C943E000C943E0064
S11300200C943E000C943E000C943E000C943E0054
S11300300C943E000C943E000C943E000C943E0044
S11300400C943E000C943E000C943E000C943E0034
S11300500C943E000C943E000C943E000C943E0024
S11300600C943E000C943E0011241FBECFEFD8E048
S1130070DEBFCDBF0E944F000C945D000C940000C5
S11300801F920F920FB60F9211241F9902C02D9A3E
S113009001C02D980F900FBE0F901F901895259AB0
S11300A02798EBE6F0E0808180688083E8E6F0E062
S11100B08081816080837894FFCFF894FFCF25
S9030000FC
