:100000000C943E000C9450000C9450000C94500042
:100010000C9450000C945A020C9450000C94500014
:100020000C9450000C9450000C9450000C94500010
:100030000C9450000C9450000C9450000C94500000
:100040000C9474020C9450000C9450000C945000CA
:100050000C9450000C9450000C9450000C945000E0
:100060000C9450000C9450005A005D006000630036
:10007000660069006C006F007200750011241FBEDD
:10008000CFEFD8E0DEBFCDBF21E0A0E0B1E001C0FE
:100090001D92A031B207E1F70E9494000C949102E6
:1000A0000C9400008A30910518F5FC01EC5CFF4FC0
:1000B0000C948B028BE78BB908958AE08BB9089575
:1000C00083EB8BB908958BE98BB908958AEC8BB9D2
:1000D000089589ED8BB9089589EF8BB908958BE068
:1000E0008BB908958BEF8BB908958BED8BB908957B
:1000F0005F9A08958FEF84B99FE395B987B987E038
:1001000088B98BEF8AB91BB884E080936800EDE66C
:10011000F0E080818460808314BC85E085BD81E04F
:1001200080936E00789408950E947A0083E090E0B6
:1001300090930F0180930E010F2EF1EFCF2EF02D33
:100140000F2EF0EADF2EF02DEE24E394F12CC3E025
:10015000D0E00F2EFBE06F2E712CF02D0F2EF5E06E
:100160008F2E912CF02D6894AA24A2F8B12C02E0D5
:1001700010E03BEE23EE80910E0190910F0103976A
:10018000D1F710920F0110920E0180910A01909107
:100190000B018830910528F410920D0110920C018A
:1001A00054C0AC01485051094230510528F4F09236
:1001B0000D01E0920C0149C08A30910529F4109399
:1001C0000D0100930C0129C0AC014B50510948307E
:1001D000510528F4D0930D01C0930C0136C0AC0139
:1001E000435151094230510528F4B0920D01A092BB
:1001F0000C012BC08531910529F490920D0180925C
:100200000C0118C040910C0150910D014230510574
:1002100021F04530510571F018C04091080150910E
:100220000901452B09F03EC1019690930B01809383
:100230000A0138C18091080190910901892B51F47C
:1002400010920B0110920A0105C0019690930B01C8
:1002500080930A018091020190910301892B59F545
:100260008091000190910101892B99F43BB9409A4A
:10027000419880E395E70197F1F72BB94098419AAF
:1002800080E395E70197F1F7F0920101E092000118
:1002900012C0CBB8409A419880E395E70197F1F7F7
:1002A000DBB84098419A80E395E70197F1F7109207
:1002B00001011092000180910C0190910D0182309A
:1002C0009105C1F028F4009769F0019779F053CFB8
:1002D0008430910509F47AC008F474C0059709F4D4
:1002E00079C049CF81E285B9429A43CF81E185B98E
:1002F000429A3FCF81E185B980910801909109012F
:10030000019709F036CFF0920301E092020189E0F3
:1003100085B9429880910601909107010E94520090
:10032000409A419880E395E70197F1F780910401A5
:10033000909105010E9452004098419A80E395E710
:100340000197F1F78091040190910501029709F45A
:10035000429A209104013091050123303105D1F4F6
:1003600010920901109208011092070110920601E3
:1003700010920501109204011BB8D0930D01C09397
:100380000C0170920B0160920A011092030110920D
:100390000201EFCE8091060190910701893091050D
:1003A00059F410920701109206012F5F3F4F3093CE
:1003B000050120930401DDCE0196909307018093FF
:1003C0000601D7CE8CE085B9429AD3CE8AE085B9B2
:1003D000429ACFCE8AE085B98091080190910901B7
:1003E000019709F0C6CEF0920301E092020189E084
:1003F00085B9429880910601909107010E945200B0
:10040000409A419880E395E70197F1F780910401C4
:10041000909105010E9452004098419A80E395E72F
:100420000197F1F78091040190910501029709F479
:10043000429A209104013091050123303105D1F415
:100440001092090110920801109207011092060102
:1004500010920501109204011BB810920D01109228
:100460000C0110920B0110920A01109203011092DC
:1004700002017FCE8091060190910701893091059C
:1004800059F410920701109206012F5F3F4F3093ED
:100490000501209304016DCE01969093070180938E
:1004A000060167CE8091020190910301892B09F426
:1004B000D7CE20CF1F920F920FB60F9211248F9399
:1004C0009F938091080190910901892B31F481E07B
:1004D00090E090930901809308019F918F910F9074
:1004E0000FBE0F901F9018951F920F920FB60F928C
:1004F00011248F939F9380910E0190910F0101968B
:1005000090930F0180930E019F918F910F900FBEDA
:100510000F901F901895EE0FFF1F0590F491E02D9E
:060520000994F894FFCFDE
:00000001FF
